{
  "_format": "hh-sol-artifact-1",
  "contractName": "AssuranceContrat",
  "sourceName": "contracts/AssuranceContrat.sol",
  "abi": [
    {
      "inputs": [],
      "stateMutability": "nonpayable",
      "type": "constructor"
    },
    {
      "inputs": [
        {
          "internalType": "address",
          "name": "owner",
          "type": "address"
        }
      ],
      "name": "OwnableInvalidOwner",
      "type": "error"
    },
    {
      "inputs": [
        {
          "internalType": "address",
          "name": "account",
          "type": "address"
        }
      ],
      "name": "OwnableUnauthorizedAccount",
      "type": "error"
    },
    {
      "anonymous": false,
      "inputs": [
        {
          "indexed": true,
          "internalType": "address",
          "name": "previousOwner",
          "type": "address"
        },
        {
          "indexed": true,
          "internalType": "address",
          "name": "newOwner",
          "type": "address"
        }
      ],
      "name": "OwnershipTransferred",
      "type": "event"
    },
    {
      "inputs": [],
      "name": "assuranceWallet",
      "outputs": [
        {
          "internalType": "contract IAssuranceWallet",
          "name": "",
          "type": "address"
        }
      ],
      "stateMutability": "view",
      "type": "function"
    },
    {
      "inputs": [
        {
          "internalType": "address",
          "name": "_newOwner",
          "type": "address"
        }
      ],
      "name": "changeOwner",
      "outputs": [],
      "stateMutability": "nonpayable",
      "type": "function"
    },
    {
      "inputs": [],
      "name": "owner",
      "outputs": [
        {
          "internalType": "address",
          "name": "",
          "type": "address"
        }
      ],
      "stateMutability": "view",
      "type": "function"
    },
    {
      "inputs": [
        {
          "internalType": "bytes32",
          "name": "hash",
          "type": "bytes32"
        },
        {
          "internalType": "bytes",
          "name": "signature",
          "type": "bytes"
        }
      ],
      "name": "recover",
      "outputs": [
        {
          "internalType": "address",
          "name": "",
          "type": "address"
        }
      ],
      "stateMutability": "pure",
      "type": "function"
    },
    {
      "inputs": [],
      "name": "renounceOwnership",
      "outputs": [],
      "stateMutability": "nonpayable",
      "type": "function"
    },
    {
      "inputs": [
        {
          "internalType": "address",
          "name": "newOwner",
          "type": "address"
        }
      ],
      "name": "transferOwnership",
      "outputs": [],
      "stateMutability": "nonpayable",
      "type": "function"
    },
    {
      "inputs": [],
      "name": "users",
      "outputs": [
        {
          "internalType": "contract IUsers",
          "name": "",
          "type": "address"
        }
      ],
      "stateMutability": "view",
      "type": "function"
    }
  ],
  "bytecode": "0x608060405234801561001057600080fd5b50338061003757604051631e4fbdf760e01b81526000600482015260240160405180910390fd5b6100408161004f565b5061004a3361004f565b61009f565b600080546001600160a01b038381166001600160a01b0319831681178455604051919092169283917f8be0079c531659141344cd1fd0a4f28419497f9722a3daafe3b4186f6b6457e09190a35050565b61042b806100ae6000396000f3fe608060405234801561001057600080fd5b506004361061007d5760003560e01c8063a6f9dae11161005b578063a6f9dae1146100cc578063c808493e146100df578063f2020275146100f2578063f2fde38b1461010557600080fd5b806319045a2514610082578063715018a6146100b15780638da5cb5b146100bb575b600080fd5b6100956100903660046102e3565b610118565b6040516001600160a01b03909116815260200160405180910390f35b6100b96101f1565b005b6000546001600160a01b0316610095565b6100b96100da36600461039e565b610205565b600254610095906001600160a01b031681565b600154610095906001600160a01b031681565b6100b961011336600461039e565b610219565b600080600080845160411461013357600093505050506101eb565b50505060208201516040830151606084015160001a601b81101561015f5761015c601b826103ce565b90505b8060ff16601b1415801561017757508060ff16601c14155b1561018857600093505050506101eb565b60408051600081526020810180835288905260ff831691810191909152606081018490526080810183905260019060a0016020604051602081039080840390855afa1580156101db573d6000803e3d6000fd5b5050506020604051035193505050505b92915050565b6101f9610250565b610203600061027d565b565b61020d610250565b6102168161027d565b50565b610221610250565b6001600160a01b03811661020d57604051631e4fbdf760e01b8152600060048201526024015b60405180910390fd5b6000546001600160a01b031633146102035760405163118cdaa760e01b8152336004820152602401610247565b600080546001600160a01b038381166001600160a01b0319831681178455604051919092169283917f8be0079c531659141344cd1fd0a4f28419497f9722a3daafe3b4186f6b6457e09190a35050565b634e487b7160e01b600052604160045260246000fd5b600080604083850312156102f657600080fd5b82359150602083013567ffffffffffffffff8082111561031557600080fd5b818501915085601f83011261032957600080fd5b81358181111561033b5761033b6102cd565b604051601f8201601f19908116603f01168101908382118183101715610363576103636102cd565b8160405282815288602084870101111561037c57600080fd5b8260208601602083013760006020848301015280955050505050509250929050565b6000602082840312156103b057600080fd5b81356001600160a01b03811681146103c757600080fd5b9392505050565b60ff81811683821601908111156101eb57634e487b7160e01b600052601160045260246000fdfea26469706673582212206bf0837a24cc446db023f127f818b2d2583c47f00a815eb25356881812a0dd3564736f6c63430008170033",
  "linkReferences": {},
  "deployedLinkReferences": {}
}