{
  "_format": "hh-sol-artifact-1",
  "contractName": "AssuranceWallet",
  "sourceName": "contracts/AssuranceWallet.sol",
  "abi": [
    {
      "inputs": [
        {
          "internalType": "address",
          "name": "initialOwner",
          "type": "address"
        }
      ],
      "stateMutability": "nonpayable",
      "type": "constructor"
    },
    {
      "inputs": [
        {
          "internalType": "address",
          "name": "owner",
          "type": "address"
        }
      ],
      "name": "OwnableInvalidOwner",
      "type": "error"
    },
    {
      "inputs": [
        {
          "internalType": "address",
          "name": "account",
          "type": "address"
        }
      ],
      "name": "OwnableUnauthorizedAccount",
      "type": "error"
    },
    {
      "anonymous": false,
      "inputs": [
        {
          "indexed": true,
          "internalType": "address",
          "name": "account",
          "type": "address"
        },
        {
          "indexed": false,
          "internalType": "uint256",
          "name": "amount",
          "type": "uint256"
        }
      ],
      "name": "Deposit",
      "type": "event"
    },
    {
      "anonymous": false,
      "inputs": [
        {
          "indexed": true,
          "internalType": "address",
          "name": "previousOwner",
          "type": "address"
        },
        {
          "indexed": true,
          "internalType": "address",
          "name": "newOwner",
          "type": "address"
        }
      ],
      "name": "OwnershipTransferred",
      "type": "event"
    },
    {
      "anonymous": false,
      "inputs": [
        {
          "indexed": true,
          "internalType": "address",
          "name": "account",
          "type": "address"
        },
        {
          "indexed": false,
          "internalType": "uint256",
          "name": "amount",
          "type": "uint256"
        }
      ],
      "name": "Withdraw",
      "type": "event"
    },
    {
      "inputs": [
        {
          "internalType": "uint256",
          "name": "amount",
          "type": "uint256"
        }
      ],
      "name": "addToTheInssuranceWallet",
      "outputs": [],
      "stateMutability": "nonpayable",
      "type": "function"
    },
    {
      "inputs": [
        {
          "internalType": "uint256",
          "name": "amount",
          "type": "uint256"
        }
      ],
      "name": "addToTheWallet",
      "outputs": [],
      "stateMutability": "nonpayable",
      "type": "function"
    },
    {
      "inputs": [
        {
          "internalType": "address",
          "name": "_wallet",
          "type": "address"
        }
      ],
      "name": "addWallet",
      "outputs": [],
      "stateMutability": "nonpayable",
      "type": "function"
    },
    {
      "inputs": [
        {
          "internalType": "address",
          "name": "_newOwner",
          "type": "address"
        }
      ],
      "name": "changeOwner",
      "outputs": [],
      "stateMutability": "nonpayable",
      "type": "function"
    },
    {
      "inputs": [],
      "name": "deposit",
      "outputs": [],
      "stateMutability": "payable",
      "type": "function"
    },
    {
      "inputs": [],
      "name": "getAllTransactions",
      "outputs": [
        {
          "components": [
            {
              "internalType": "uint256",
              "name": "transactionId",
              "type": "uint256"
            },
            {
              "internalType": "address",
              "name": "walletSender",
              "type": "address"
            },
            {
              "internalType": "address",
              "name": "walletReceiver",
              "type": "address"
            },
            {
              "internalType": "uint256",
              "name": "amount",
              "type": "uint256"
            },
            {
              "internalType": "uint256",
              "name": "date",
              "type": "uint256"
            },
            {
              "internalType": "bool",
              "name": "isApproved",
              "type": "bool"
            },
            {
              "internalType": "bytes32",
              "name": "signature",
              "type": "bytes32"
            }
          ],
          "internalType": "struct AssuranceWallet.Transaction[]",
          "name": "",
          "type": "tuple[]"
        }
      ],
      "stateMutability": "view",
      "type": "function"
    },
    {
      "inputs": [],
      "name": "getBalance",
      "outputs": [
        {
          "internalType": "uint256",
          "name": "",
          "type": "uint256"
        }
      ],
      "stateMutability": "view",
      "type": "function"
    },
    {
      "inputs": [],
      "name": "getContractBalance",
      "outputs": [
        {
          "internalType": "uint256",
          "name": "",
          "type": "uint256"
        }
      ],
      "stateMutability": "view",
      "type": "function"
    },
    {
      "inputs": [
        {
          "internalType": "uint256",
          "name": "_id",
          "type": "uint256"
        }
      ],
      "name": "getTransactionById",
      "outputs": [
        {
          "components": [
            {
              "internalType": "uint256",
              "name": "transactionId",
              "type": "uint256"
            },
            {
              "internalType": "address",
              "name": "walletSender",
              "type": "address"
            },
            {
              "internalType": "address",
              "name": "walletReceiver",
              "type": "address"
            },
            {
              "internalType": "uint256",
              "name": "amount",
              "type": "uint256"
            },
            {
              "internalType": "uint256",
              "name": "date",
              "type": "uint256"
            },
            {
              "internalType": "bool",
              "name": "isApproved",
              "type": "bool"
            },
            {
              "internalType": "bytes32",
              "name": "signature",
              "type": "bytes32"
            }
          ],
          "internalType": "struct AssuranceWallet.Transaction",
          "name": "",
          "type": "tuple"
        }
      ],
      "stateMutability": "view",
      "type": "function"
    },
    {
      "inputs": [
        {
          "internalType": "address",
          "name": "_wallet",
          "type": "address"
        }
      ],
      "name": "getTransactionsByWallet",
      "outputs": [
        {
          "components": [
            {
              "internalType": "uint256",
              "name": "transactionId",
              "type": "uint256"
            },
            {
              "internalType": "address",
              "name": "walletSender",
              "type": "address"
            },
            {
              "internalType": "address",
              "name": "walletReceiver",
              "type": "address"
            },
            {
              "internalType": "uint256",
              "name": "amount",
              "type": "uint256"
            },
            {
              "internalType": "uint256",
              "name": "date",
              "type": "uint256"
            },
            {
              "internalType": "bool",
              "name": "isApproved",
              "type": "bool"
            },
            {
              "internalType": "bytes32",
              "name": "signature",
              "type": "bytes32"
            }
          ],
          "internalType": "struct AssuranceWallet.Transaction[]",
          "name": "",
          "type": "tuple[]"
        }
      ],
      "stateMutability": "view",
      "type": "function"
    },
    {
      "inputs": [],
      "name": "owner",
      "outputs": [
        {
          "internalType": "address",
          "name": "",
          "type": "address"
        }
      ],
      "stateMutability": "view",
      "type": "function"
    },
    {
      "inputs": [
        {
          "internalType": "address",
          "name": "_wallet",
          "type": "address"
        }
      ],
      "name": "removeWallet",
      "outputs": [],
      "stateMutability": "nonpayable",
      "type": "function"
    },
    {
      "inputs": [],
      "name": "renounceOwnership",
      "outputs": [],
      "stateMutability": "nonpayable",
      "type": "function"
    },
    {
      "inputs": [
        {
          "internalType": "address payable",
          "name": "_receiver",
          "type": "address"
        },
        {
          "internalType": "uint256",
          "name": "_amount",
          "type": "uint256"
        }
      ],
      "name": "sendEther",
      "outputs": [],
      "stateMutability": "nonpayable",
      "type": "function"
    },
    {
      "inputs": [
        {
          "internalType": "uint256",
          "name": "amount",
          "type": "uint256"
        }
      ],
      "name": "subFromTheInssuranceWallet",
      "outputs": [],
      "stateMutability": "nonpayable",
      "type": "function"
    },
    {
      "inputs": [
        {
          "internalType": "uint256",
          "name": "amount",
          "type": "uint256"
        }
      ],
      "name": "subFromThewallet",
      "outputs": [],
      "stateMutability": "nonpayable",
      "type": "function"
    },
    {
      "inputs": [
        {
          "internalType": "uint256",
          "name": "",
          "type": "uint256"
        }
      ],
      "name": "transactions",
      "outputs": [
        {
          "internalType": "uint256",
          "name": "transactionId",
          "type": "uint256"
        },
        {
          "internalType": "address",
          "name": "walletSender",
          "type": "address"
        },
        {
          "internalType": "address",
          "name": "walletReceiver",
          "type": "address"
        },
        {
          "internalType": "uint256",
          "name": "amount",
          "type": "uint256"
        },
        {
          "internalType": "uint256",
          "name": "date",
          "type": "uint256"
        },
        {
          "internalType": "bool",
          "name": "isApproved",
          "type": "bool"
        },
        {
          "internalType": "bytes32",
          "name": "signature",
          "type": "bytes32"
        }
      ],
      "stateMutability": "view",
      "type": "function"
    },
    {
      "inputs": [
        {
          "internalType": "address",
          "name": "newOwner",
          "type": "address"
        }
      ],
      "name": "transferOwnership",
      "outputs": [],
      "stateMutability": "nonpayable",
      "type": "function"
    },
    {
      "inputs": [
        {
          "internalType": "address",
          "name": "",
          "type": "address"
        }
      ],
      "name": "wallets",
      "outputs": [
        {
          "internalType": "uint256",
          "name": "",
          "type": "uint256"
        }
      ],
      "stateMutability": "view",
      "type": "function"
    },
    {
      "inputs": [
        {
          "internalType": "uint256",
          "name": "_amount",
          "type": "uint256"
        }
      ],
      "name": "withdraw",
      "outputs": [],
      "stateMutability": "nonpayable",
      "type": "function"
    }
  ],
  "bytecode": "0x6080604052600180546001600160a01b031916730e0a7edd5d401a5595e218a8490b4c1f86c85cbd17905534801561003657600080fd5b50604051611047380380611047833981016040819052610055916100ed565b806001600160a01b03811661008457604051631e4fbdf760e01b81526000600482015260240160405180910390fd5b61008d8161009d565b506100973361009d565b5061011d565b600080546001600160a01b038381166001600160a01b0319831681178455604051919092169283917f8be0079c531659141344cd1fd0a4f28419497f9722a3daafe3b4186f6b6457e09190a35050565b6000602082840312156100ff57600080fd5b81516001600160a01b038116811461011657600080fd5b9392505050565b610f1b8061012c6000396000f3fe60806040526004361061011f5760003560e01c80639ace38c2116100a0578063d0e30db011610064578063d0e30db014610359578063d5aaa09c14610361578063efeb5f1f146102f9578063f2fde38b14610381578063f4b30eaf146103a157600080fd5b80639ace38c214610276578063a6f9dae1146102d9578063a75fe8e1146102f9578063c1756a2c14610319578063c218a1ef1461033957600080fd5b806334d9658f116100e757806334d9658f146101d95780636f9fb98a146101f9578063715018a61461020c57806389b08f11146102215780638da5cb5b1461024e57600080fd5b806308c486831461012457806312065fe01461014657806312fa680e1461017757806327506f53146101975780632e1a7d4d146101b9575b600080fd5b34801561013057600080fd5b5061014461013f366004610d04565b6103ce565b005b34801561015257600080fd5b50336000908152600360205260409020545b6040519081526020015b60405180910390f35b34801561018357600080fd5b50610144610192366004610d04565b6103fd565b3480156101a357600080fd5b506101ac61042f565b60405161016e9190610d71565b3480156101c557600080fd5b506101446101d4366004610d04565b6104df565b3480156101e557600080fd5b506101446101f4366004610d04565b6105f6565b34801561020557600080fd5b5047610164565b34801561021857600080fd5b5061014461061d565b34801561022d57600080fd5b5061016461023c366004610dd4565b60036020526000908152604090205481565b34801561025a57600080fd5b506000546040516001600160a01b03909116815260200161016e565b34801561028257600080fd5b50610296610291366004610d04565b610631565b604080519788526001600160a01b039687166020890152949095169386019390935260608501919091526080840152151560a083015260c082015260e00161016e565b3480156102e557600080fd5b506101446102f4366004610dd4565b61068f565b34801561030557600080fd5b50610144610314366004610dd4565b6106c2565b34801561032557600080fd5b50610144610334366004610df8565b6106e4565b34801561034557600080fd5b50610144610354366004610d04565b610919565b61014461094b565b34801561036d57600080fd5b506101ac61037c366004610dd4565b6109a6565b34801561038d57600080fd5b5061014461039c366004610dd4565b610b85565b3480156103ad57600080fd5b506103c16103bc366004610d04565b610bc3565b60405161016e9190610e24565b6103d6610c87565b33600090815260036020526040812080548392906103f5908490610e4e565b909155505050565b610405610c87565b6001546001600160a01b0316600090815260036020526040812080548392906103f5908490610e61565b60606002805480602002602001604051908101604052809291908181526020016000905b828210156104d65760008481526020908190206040805160e08101825260078602909201805483526001808201546001600160a01b0390811685870152600283015416928401929092526003810154606084015260048101546080840152600581015460ff16151560a08401526006015460c08301529083529092019101610453565b50505050905090565b336000818152600360205260409020546105385760405162461bcd60e51b815260206004820152601560248201527415d85b1b195d08191bd95cc81b9bdd08195e1a5cdd605a1b60448201526064015b60405180910390fd5b3360008181526003602052604090205483908111156105695760405162461bcd60e51b815260040161052f90610e74565b3360009081526003602052604081208054869290610588908490610e4e565b9091555050604051339085156108fc029086906000818181858888f193505050501580156105ba573d6000803e3d6000fd5b5060405184815233907f884edad9ce6fa2440d8a54cc123490eb96d2768479d49ff9c7366125a94243649060200160405180910390a250505050565b6105fe610c87565b33600090815260036020526040812080548392906103f5908490610e61565b610625610c87565b61062f6000610cb4565b565b6002818154811061064157600080fd5b600091825260209091206007909102018054600182015460028301546003840154600485015460058601546006909601549496506001600160a01b03938416959390921693909260ff169087565b610697610c87565b6106a081610cb4565b600180546001600160a01b0319166001600160a01b0392909216919091179055565b6106ca610c87565b6001600160a01b0316600090815260036020526040812055565b6106ec610c87565b6001600160a01b038216600090815260036020526040902054829082908111156107285760405162461bcd60e51b815260040161052f90610e74565b478311156107485760405162461bcd60e51b815260040161052f90610e74565b6040516001600160a01b0385169084156108fc029085906000818181858888f1935050505015801561077e573d6000803e3d6000fd5b50506040805160e0810182526002805480835233602084019081526001600160a01b03978816948401948552606084019687524260808501908152600160a08601818152600060c0880181815292860187559590955294517f405787fa12a823e0f2b7631cc41b3ba8828b3321ca811111fa75cd3aa3bb5ace60079094029384015590517f405787fa12a823e0f2b7631cc41b3ba8828b3321ca811111fa75cd3aa3bb5acf830180546001600160a01b0319908116928b1692909217905594517f405787fa12a823e0f2b7631cc41b3ba8828b3321ca811111fa75cd3aa3bb5ad08301805490961698169790971790935593517f405787fa12a823e0f2b7631cc41b3ba8828b3321ca811111fa75cd3aa3bb5ad183015593517f405787fa12a823e0f2b7631cc41b3ba8828b3321ca811111fa75cd3aa3bb5ad282015591517f405787fa12a823e0f2b7631cc41b3ba8828b3321ca811111fa75cd3aa3bb5ad38301805460ff19169115159190911790555090517f405787fa12a823e0f2b7631cc41b3ba8828b3321ca811111fa75cd3aa3bb5ad490910155565b610921610c87565b6001546001600160a01b0316600090815260036020526040812080548392906103f5908490610e4e565b336000908152600360205260408120805434929061096a908490610e61565b909155505060405134815233907fe1fffcc4923d04b559f4d29a8bfc6cda04eb5b0d3c460751c2402c5c5cc9109c9060200160405180910390a2565b60025460609060009067ffffffffffffffff8111156109c7576109c7610ea0565b604051908082528060200260200182016040528015610a2e57816020015b6040805160e08101825260008082526020808301829052928201819052606082018190526080820181905260a0820181905260c082015282526000199092019101816109e55790505b5090506000805b600254811015610b7c57846001600160a01b031660028281548110610a5c57610a5c610eb6565b60009182526020909120600160079092020101546001600160a01b03161480610abc5750846001600160a01b031660028281548110610a9d57610a9d610eb6565b60009182526020909120600260079092020101546001600160a01b0316145b15610b745760028181548110610ad457610ad4610eb6565b60009182526020918290206040805160e08101825260079093029091018054835260018101546001600160a01b03908116948401949094526002810154909316908201526003820154606082015260048201546080820152600582015460ff16151560a082015260069091015460c08201528351849084908110610b5a57610b5a610eb6565b60200260200101819052508180610b7090610ecc565b9250505b600101610a35565b50909392505050565b610b8d610c87565b6001600160a01b038116610bb757604051631e4fbdf760e01b81526000600482015260240161052f565b610bc081610cb4565b50565b6040805160e081018252600080825260208201819052918101829052606081018290526080810182905260a0810182905260c081019190915260028281548110610c0f57610c0f610eb6565b60009182526020918290206040805160e08101825260079093029091018054835260018101546001600160a01b03908116948401949094526002810154909316908201526003820154606082015260048201546080820152600582015460ff16151560a082015260069091015460c082015292915050565b6000546001600160a01b0316331461062f5760405163118cdaa760e01b815233600482015260240161052f565b600080546001600160a01b038381166001600160a01b0319831681178455604051919092169283917f8be0079c531659141344cd1fd0a4f28419497f9722a3daafe3b4186f6b6457e09190a35050565b600060208284031215610d1657600080fd5b5035919050565b80518252602081015160018060a01b0380821660208501528060408401511660408501525050606081015160608301526080810151608083015260a0810151151560a083015260c081015160c08301525050565b6020808252825182820181905260009190848201906040850190845b81811015610db357610da0838551610d1d565b9284019260e09290920191600101610d8d565b50909695505050505050565b6001600160a01b0381168114610bc057600080fd5b600060208284031215610de657600080fd5b8135610df181610dbf565b9392505050565b60008060408385031215610e0b57600080fd5b8235610e1681610dbf565b946020939093013593505050565b60e08101610e328284610d1d565b92915050565b634e487b7160e01b600052601160045260246000fd5b81810381811115610e3257610e32610e38565b80820180821115610e3257610e32610e38565b602080825260129082015271496e73756666696369656e742066756e647360701b604082015260600190565b634e487b7160e01b600052604160045260246000fd5b634e487b7160e01b600052603260045260246000fd5b600060018201610ede57610ede610e38565b506001019056fea2646970667358221220c6a572daa2a0bfe9db6ba2746b3e04094f5f068fa951b3bda44c1df621992e5e64736f6c63430008170033",
  "linkReferences": {},
  "deployedLinkReferences": {}
}