{
  "_format": "hh-sol-artifact-1",
  "contractName": "Verification",
  "sourceName": "contracts/Verification.sol",
  "abi": [
    {
      "inputs": [
        {
          "internalType": "bytes32",
          "name": "hash",
          "type": "bytes32"
        },
        {
          "internalType": "bytes",
          "name": "signature",
          "type": "bytes"
        }
      ],
      "name": "recover",
      "outputs": [
        {
          "internalType": "address",
          "name": "",
          "type": "address"
        }
      ],
      "stateMutability": "pure",
      "type": "function"
    }
  ],
  "bytecode": "0x608060405234801561001057600080fd5b50610266806100206000396000f3fe608060405234801561001057600080fd5b506004361061002b5760003560e01c806319045a2514610030575b600080fd5b61004361003e36600461014e565b61005f565b6040516001600160a01b03909116815260200160405180910390f35b600080600080845160411461007a5760009350505050610132565b50505060208201516040830151606084015160001a601b8110156100a6576100a3601b82610209565b90505b8060ff16601b141580156100be57508060ff16601c14155b156100cf5760009350505050610132565b60408051600081526020810180835288905260ff831691810191909152606081018490526080810183905260019060a0016020604051602081039080840390855afa158015610122573d6000803e3d6000fd5b5050506020604051035193505050505b92915050565b634e487b7160e01b600052604160045260246000fd5b6000806040838503121561016157600080fd5b82359150602083013567ffffffffffffffff8082111561018057600080fd5b818501915085601f83011261019457600080fd5b8135818111156101a6576101a6610138565b604051601f8201601f19908116603f011681019083821181831017156101ce576101ce610138565b816040528281528860208487010111156101e757600080fd5b8260208601602083013760006020848301015280955050505050509250929050565b60ff818116838216019081111561013257634e487b7160e01b600052601160045260246000fdfea2646970667358221220751fa3f22b8ef8f343da3a72859c5cb3ed5141af169a2cd014df9612b6d267fb64736f6c63430008170033",
  "linkReferences": {},
  "deployedLinkReferences": {}
}