{
  "_format": "hh-sol-artifact-1",
  "contractName": "InjadChamilInsurance",
  "sourceName": "contracts/contratPersonaliser/InjazChamil.sol",
  "abi": [
    {
      "inputs": [],
      "stateMutability": "nonpayable",
      "type": "constructor"
    },
    {
      "inputs": [
        {
          "internalType": "address",
          "name": "owner",
          "type": "address"
        }
      ],
      "name": "OwnableInvalidOwner",
      "type": "error"
    },
    {
      "inputs": [
        {
          "internalType": "address",
          "name": "account",
          "type": "address"
        }
      ],
      "name": "OwnableUnauthorizedAccount",
      "type": "error"
    },
    {
      "anonymous": false,
      "inputs": [
        {
          "indexed": true,
          "internalType": "address",
          "name": "policyHolder",
          "type": "address"
        },
        {
          "indexed": false,
          "internalType": "uint256",
          "name": "amount",
          "type": "uint256"
        }
      ],
      "name": "ContributionPaid",
      "type": "event"
    },
    {
      "anonymous": false,
      "inputs": [
        {
          "indexed": true,
          "internalType": "address",
          "name": "beneficiary",
          "type": "address"
        },
        {
          "indexed": false,
          "internalType": "uint256",
          "name": "claimAmount",
          "type": "uint256"
        }
      ],
      "name": "InsuranceClaimProcessed",
      "type": "event"
    },
    {
      "anonymous": false,
      "inputs": [
        {
          "indexed": true,
          "internalType": "address",
          "name": "policyHolder",
          "type": "address"
        }
      ],
      "name": "IsNotEligible",
      "type": "event"
    },
    {
      "anonymous": false,
      "inputs": [
        {
          "indexed": true,
          "internalType": "address",
          "name": "previousOwner",
          "type": "address"
        },
        {
          "indexed": true,
          "internalType": "address",
          "name": "newOwner",
          "type": "address"
        }
      ],
      "name": "OwnershipTransferred",
      "type": "event"
    },
    {
      "inputs": [
        {
          "internalType": "address",
          "name": "_beneficiary",
          "type": "address"
        }
      ],
      "name": "addBeneficiary",
      "outputs": [],
      "stateMutability": "nonpayable",
      "type": "function"
    },
    {
      "inputs": [],
      "name": "assuranceWallet",
      "outputs": [
        {
          "internalType": "contract IAssuranceWallet",
          "name": "",
          "type": "address"
        }
      ],
      "stateMutability": "view",
      "type": "function"
    },
    {
      "inputs": [
        {
          "internalType": "address",
          "name": "_newOwner",
          "type": "address"
        }
      ],
      "name": "changeOwner",
      "outputs": [],
      "stateMutability": "nonpayable",
      "type": "function"
    },
    {
      "inputs": [
        {
          "internalType": "address",
          "name": "",
          "type": "address"
        }
      ],
      "name": "contractDetailsOf",
      "outputs": [
        {
          "internalType": "uint256",
          "name": "contractId",
          "type": "uint256"
        },
        {
          "internalType": "uint256",
          "name": "duration",
          "type": "uint256"
        },
        {
          "internalType": "uint256",
          "name": "capitalTotal",
          "type": "uint256"
        },
        {
          "internalType": "uint256",
          "name": "yearsSinceStart",
          "type": "uint256"
        },
        {
          "internalType": "enum IInjadChamilInsurance.CoverageStatus",
          "name": "status",
          "type": "uint8"
        }
      ],
      "stateMutability": "view",
      "type": "function"
    },
    {
      "inputs": [
        {
          "internalType": "address",
          "name": "_policyHolder",
          "type": "address"
        }
      ],
      "name": "getContributions",
      "outputs": [
        {
          "internalType": "uint256",
          "name": "",
          "type": "uint256"
        }
      ],
      "stateMutability": "view",
      "type": "function"
    },
    {
      "inputs": [
        {
          "internalType": "address",
          "name": "_individual",
          "type": "address"
        }
      ],
      "name": "getCoverageDetails",
      "outputs": [
        {
          "internalType": "uint256",
          "name": "coveragePeriodStart",
          "type": "uint256"
        },
        {
          "internalType": "uint256",
          "name": "coveragePeriodEnd",
          "type": "uint256"
        },
        {
          "internalType": "uint256",
          "name": "waitingPeriodEnd",
          "type": "uint256"
        }
      ],
      "stateMutability": "view",
      "type": "function"
    },
    {
      "inputs": [
        {
          "internalType": "address",
          "name": "_individual",
          "type": "address"
        }
      ],
      "name": "getEffectiveDate",
      "outputs": [
        {
          "internalType": "uint256",
          "name": "",
          "type": "uint256"
        }
      ],
      "stateMutability": "view",
      "type": "function"
    },
    {
      "inputs": [
        {
          "internalType": "address",
          "name": "_individual",
          "type": "address"
        }
      ],
      "name": "getWaitingPeriod",
      "outputs": [
        {
          "internalType": "uint256",
          "name": "",
          "type": "uint256"
        }
      ],
      "stateMutability": "view",
      "type": "function"
    },
    {
      "inputs": [
        {
          "internalType": "address",
          "name": "_beneficiary",
          "type": "address"
        }
      ],
      "name": "isCoverageActive",
      "outputs": [
        {
          "internalType": "enum IInjadChamilInsurance.CoverageStatus",
          "name": "",
          "type": "uint8"
        }
      ],
      "stateMutability": "view",
      "type": "function"
    },
    {
      "inputs": [
        {
          "internalType": "address",
          "name": "_individual",
          "type": "address"
        }
      ],
      "name": "isCoveredIndividual",
      "outputs": [
        {
          "internalType": "bool",
          "name": "",
          "type": "bool"
        }
      ],
      "stateMutability": "view",
      "type": "function"
    },
    {
      "inputs": [],
      "name": "owner",
      "outputs": [
        {
          "internalType": "address",
          "name": "",
          "type": "address"
        }
      ],
      "stateMutability": "view",
      "type": "function"
    },
    {
      "inputs": [
        {
          "internalType": "address",
          "name": "_beneficiary",
          "type": "address"
        }
      ],
      "name": "processInsuranceClaim",
      "outputs": [],
      "stateMutability": "nonpayable",
      "type": "function"
    },
    {
      "inputs": [
        {
          "internalType": "bytes32",
          "name": "hash",
          "type": "bytes32"
        },
        {
          "internalType": "bytes",
          "name": "signature",
          "type": "bytes"
        }
      ],
      "name": "recover",
      "outputs": [
        {
          "internalType": "address",
          "name": "",
          "type": "address"
        }
      ],
      "stateMutability": "pure",
      "type": "function"
    },
    {
      "inputs": [
        {
          "internalType": "address",
          "name": "_beneficiary",
          "type": "address"
        }
      ],
      "name": "removeBeneficiary",
      "outputs": [],
      "stateMutability": "nonpayable",
      "type": "function"
    },
    {
      "inputs": [
        {
          "internalType": "address",
          "name": "_individual",
          "type": "address"
        }
      ],
      "name": "renewContract",
      "outputs": [],
      "stateMutability": "nonpayable",
      "type": "function"
    },
    {
      "inputs": [],
      "name": "renounceOwnership",
      "outputs": [],
      "stateMutability": "nonpayable",
      "type": "function"
    },
    {
      "inputs": [
        {
          "internalType": "address",
          "name": "_individual",
          "type": "address"
        }
      ],
      "name": "terminateContract",
      "outputs": [],
      "stateMutability": "nonpayable",
      "type": "function"
    },
    {
      "inputs": [
        {
          "internalType": "address",
          "name": "newOwner",
          "type": "address"
        }
      ],
      "name": "transferOwnership",
      "outputs": [],
      "stateMutability": "nonpayable",
      "type": "function"
    },
    {
      "inputs": [],
      "name": "users",
      "outputs": [
        {
          "internalType": "contract IUsers",
          "name": "",
          "type": "address"
        }
      ],
      "stateMutability": "view",
      "type": "function"
    },
    {
      "inputs": [
        {
          "internalType": "address",
          "name": "",
          "type": "address"
        }
      ],
      "name": "wallets",
      "outputs": [
        {
          "internalType": "uint256",
          "name": "",
          "type": "uint256"
        }
      ],
      "stateMutability": "view",
      "type": "function"
    }
  ],
  "bytecode": "0x608060405234801561001057600080fd5b50338061003757604051631e4fbdf760e01b81526000600482015260240160405180910390fd5b6100408161004f565b5061004a3361004f565b61009f565b600080546001600160a01b038381166001600160a01b0319831681178455604051919092169283917f8be0079c531659141344cd1fd0a4f28419497f9722a3daafe3b4186f6b6457e09190a35050565b6109b0806100ae6000396000f3fe608060405234801561001057600080fd5b506004361061012c5760003560e01c80639abe4399116100ad578063db09fb1a11610071578063db09fb1a1461034c578063e0c447921461036f578063f030ec0c1461031f578063f202027514610382578063f2fde38b1461039557600080fd5b80639abe4399146102795780639ba0d5d7146102a7578063a6f9dae1146102f9578063c808493e1461030c578063cb28f4561461031f57600080fd5b806359633a1c116100f457806359633a1c1461020d578063715018a614610220578063741e874a1461022857806389b08f11146102485780638da5cb5b1461026857600080fd5b806319045a251461013157806324a06505146101615780633a3b1e0a146101765780633f19d043146101a15780635926651d146101c2575b600080fd5b61014461013f3660046107ba565b6103a8565b6040516001600160a01b0390911681526020015b60405180910390f35b61017461016f366004610875565b610481565b005b610174610184366004610875565b6001600160a01b0316600090815260036020819052604082200155565b6101b46101af366004610875565b6104d5565b604051908152602001610158565b6101746101d0366004610875565b6001600160a01b031660008181526003602090815260408220600401805460018101825590835291200180546001600160a01b0319169091179055565b61017461021b366004610875565b610520565b61017461054a565b61023b610236366004610875565b61055e565b60405161015891906108c7565b6101b4610256366004610875565b60046020526000908152604090205481565b6000546001600160a01b0316610144565b61028c610287366004610875565b61058f565b60408051938452602084019290925290820152606001610158565b6102e86102b5366004610875565b60036020819052600091825260409091208054600182015460028301549383015460059093015491939092909160ff1685565b6040516101589594939291906108d5565b610174610307366004610875565b6105f6565b600254610144906001600160a01b031681565b6101b461032d366004610875565b6001600160a01b03166000908152600360208190526040909120015490565b61035f61035a366004610875565b610607565b6040519015158152602001610158565b61017461037d366004610875565b61068f565b600154610144906001600160a01b031681565b6101746103a3366004610875565b6106be565b60008060008084516041146103c3576000935050505061047b565b50505060208201516040830151606084015160001a601b8110156103ef576103ec601b8261091f565b90505b8060ff16601b1415801561040757508060ff16601c14155b15610418576000935050505061047b565b60408051600081526020810180835288905260ff831691810191909152606081018490526080810183905260019060a0016020604051602081039080840390855afa15801561046b573d6000803e3d6000fd5b5050506020604051035193505050505b92915050565b600061048c826104d5565b9050816001600160a01b03167f21e1f64efaf94f49e26bd3b17d3394744866c1b6ca2c3b617738fd22c84e8cad826040516104c991815260200190565b60405180910390a25050565b6001600160a01b0381166000908152600360205260408120600101546002111561051857506001600160a01b031660009081526003602052604090206002015490565b506000919050565b6001600160a01b038116600090815260036020526040812061054791600490910190610772565b50565b6105526106f5565b61055c6000610722565b565b6001600160a01b0381166000908152600360208190526040822001541561058757506000919050565b506001919050565b6001600160a01b0381166000908152600360208190526040822090810154600190910154829182916105c19082610938565b6001600160a01b038616600090815260036020819052604090912001546105e9906001610938565b9250925092509193909250565b6105fe6106f5565b61054781610722565b6000805b6001600160a01b038316600090815260036020526040902060040154811015610686576001600160a01b038316600081815260036020526040902060040180548390811061065b5761065b61094b565b6000918252602090912001546001600160a01b03160361067e5750600192915050565b60010161060b565b50600092915050565b6001600160a01b03811660009081526003602081905260408220018054916106b683610961565b919050555050565b6106c66106f5565b6001600160a01b0381166105fe57604051631e4fbdf760e01b8152600060048201526024015b60405180910390fd5b6000546001600160a01b0316331461055c5760405163118cdaa760e01b81523360048201526024016106ec565b600080546001600160a01b038381166001600160a01b0319831681178455604051919092169283917f8be0079c531659141344cd1fd0a4f28419497f9722a3daafe3b4186f6b6457e09190a35050565b508054600082559060005260206000209081019061054791905b808211156107a0576000815560010161078c565b5090565b634e487b7160e01b600052604160045260246000fd5b600080604083850312156107cd57600080fd5b82359150602083013567ffffffffffffffff808211156107ec57600080fd5b818501915085601f83011261080057600080fd5b813581811115610812576108126107a4565b604051601f8201601f19908116603f0116810190838211818310171561083a5761083a6107a4565b8160405282815288602084870101111561085357600080fd5b8260208601602083013760006020848301015280955050505050509250929050565b60006020828403121561088757600080fd5b81356001600160a01b038116811461089e57600080fd5b9392505050565b600281106108c357634e487b7160e01b600052602160045260246000fd5b9052565b6020810161047b82846108a5565b600060a0820190508682528560208301528460408301528360608301526108ff60808301846108a5565b9695505050505050565b634e487b7160e01b600052601160045260246000fd5b60ff818116838216019081111561047b5761047b610909565b8082018082111561047b5761047b610909565b634e487b7160e01b600052603260045260246000fd5b60006001820161097357610973610909565b506001019056fea2646970667358221220510aa137256cff5d9ad98c13ddaa9846b0725f9afef38a3f892adfab84723ff164736f6c63430008170033",
  "linkReferences": {},
  "deployedLinkReferences": {}
}