{
  "_format": "hh-sol-artifact-1",
  "contractName": "Users",
  "sourceName": "contracts/User.sol",
  "abi": [
    {
      "anonymous": false,
      "inputs": [
        {
          "indexed": false,
          "internalType": "string",
          "name": "email",
          "type": "string"
        }
      ],
      "name": "EmailUpdated",
      "type": "event"
    },
    {
      "anonymous": false,
      "inputs": [
        {
          "indexed": false,
          "internalType": "bool",
          "name": "isMarried",
          "type": "bool"
        }
      ],
      "name": "MarriageStatusUpdated",
      "type": "event"
    },
    {
      "anonymous": false,
      "inputs": [
        {
          "indexed": false,
          "internalType": "string",
          "name": "name",
          "type": "string"
        },
        {
          "indexed": false,
          "internalType": "uint256",
          "name": "age",
          "type": "uint256"
        },
        {
          "indexed": false,
          "internalType": "uint256",
          "name": "numberOfChildren",
          "type": "uint256"
        },
        {
          "indexed": false,
          "internalType": "uint256",
          "name": "balance",
          "type": "uint256"
        },
        {
          "indexed": false,
          "internalType": "address",
          "name": "userAddress",
          "type": "address"
        },
        {
          "indexed": false,
          "internalType": "string",
          "name": "contractChosen",
          "type": "string"
        }
      ],
      "name": "UserInfoUpdated",
      "type": "event"
    },
    {
      "inputs": [
        {
          "internalType": "address",
          "name": "userAddress",
          "type": "address"
        },
        {
          "internalType": "uint256",
          "name": "amount",
          "type": "uint256"
        }
      ],
      "name": "addToBalance",
      "outputs": [],
      "stateMutability": "nonpayable",
      "type": "function"
    },
    {
      "inputs": [
        {
          "internalType": "string",
          "name": "_name",
          "type": "string"
        },
        {
          "internalType": "uint256",
          "name": "_age",
          "type": "uint256"
        },
        {
          "internalType": "uint256",
          "name": "_numberOfChildren",
          "type": "uint256"
        },
        {
          "internalType": "uint256",
          "name": "_balance",
          "type": "uint256"
        },
        {
          "internalType": "address",
          "name": "_userAddress",
          "type": "address"
        },
        {
          "internalType": "string",
          "name": "_contractChosen",
          "type": "string"
        },
        {
          "internalType": "string",
          "name": "_email",
          "type": "string"
        },
        {
          "internalType": "bool",
          "name": "_isMarried",
          "type": "bool"
        }
      ],
      "name": "addUser",
      "outputs": [],
      "stateMutability": "nonpayable",
      "type": "function"
    },
    {
      "inputs": [
        {
          "internalType": "address",
          "name": "userAddress",
          "type": "address"
        }
      ],
      "name": "getBalance",
      "outputs": [
        {
          "internalType": "uint256",
          "name": "",
          "type": "uint256"
        }
      ],
      "stateMutability": "view",
      "type": "function"
    },
    {
      "inputs": [
        {
          "internalType": "address",
          "name": "userAddress",
          "type": "address"
        }
      ],
      "name": "getContract",
      "outputs": [
        {
          "internalType": "string",
          "name": "",
          "type": "string"
        }
      ],
      "stateMutability": "view",
      "type": "function"
    },
    {
      "inputs": [
        {
          "internalType": "address",
          "name": "userAddress",
          "type": "address"
        }
      ],
      "name": "getUser",
      "outputs": [
        {
          "components": [
            {
              "internalType": "string",
              "name": "name",
              "type": "string"
            },
            {
              "internalType": "uint256",
              "name": "age",
              "type": "uint256"
            },
            {
              "internalType": "uint256",
              "name": "numberOfChildren",
              "type": "uint256"
            },
            {
              "internalType": "uint256",
              "name": "balance",
              "type": "uint256"
            },
            {
              "internalType": "address",
              "name": "userAddress",
              "type": "address"
            },
            {
              "internalType": "string",
              "name": "contractChosen",
              "type": "string"
            },
            {
              "internalType": "string",
              "name": "email",
              "type": "string"
            },
            {
              "internalType": "bool",
              "name": "isMarried",
              "type": "bool"
            }
          ],
          "internalType": "struct Users.User",
          "name": "",
          "type": "tuple"
        }
      ],
      "stateMutability": "view",
      "type": "function"
    },
    {
      "inputs": [],
      "name": "owner",
      "outputs": [
        {
          "internalType": "address",
          "name": "",
          "type": "address"
        }
      ],
      "stateMutability": "view",
      "type": "function"
    },
    {
      "inputs": [
        {
          "internalType": "address",
          "name": "userAddress",
          "type": "address"
        },
        {
          "internalType": "uint256",
          "name": "amount",
          "type": "uint256"
        }
      ],
      "name": "setBalance",
      "outputs": [],
      "stateMutability": "nonpayable",
      "type": "function"
    },
    {
      "inputs": [
        {
          "internalType": "address",
          "name": "userAddress",
          "type": "address"
        },
        {
          "internalType": "string",
          "name": "_email",
          "type": "string"
        }
      ],
      "name": "updateEmail",
      "outputs": [],
      "stateMutability": "nonpayable",
      "type": "function"
    },
    {
      "inputs": [
        {
          "internalType": "address",
          "name": "userAddress",
          "type": "address"
        },
        {
          "internalType": "bool",
          "name": "_isMarried",
          "type": "bool"
        }
      ],
      "name": "updateMarriageStatus",
      "outputs": [],
      "stateMutability": "nonpayable",
      "type": "function"
    },
    {
      "inputs": [
        {
          "internalType": "address",
          "name": "addressUser",
          "type": "address"
        },
        {
          "internalType": "uint256",
          "name": "newNumberOfChildren",
          "type": "uint256"
        }
      ],
      "name": "updateUserNumberOfChildren",
      "outputs": [],
      "stateMutability": "nonpayable",
      "type": "function"
    },
    {
      "inputs": [
        {
          "internalType": "address",
          "name": "useradd",
          "type": "address"
        }
      ],
      "name": "userExist",
      "outputs": [
        {
          "internalType": "bool",
          "name": "",
          "type": "bool"
        }
      ],
      "stateMutability": "view",
      "type": "function"
    },
    {
      "inputs": [
        {
          "internalType": "address",
          "name": "",
          "type": "address"
        }
      ],
      "name": "users",
      "outputs": [
        {
          "internalType": "string",
          "name": "name",
          "type": "string"
        },
        {
          "internalType": "uint256",
          "name": "age",
          "type": "uint256"
        },
        {
          "internalType": "uint256",
          "name": "numberOfChildren",
          "type": "uint256"
        },
        {
          "internalType": "uint256",
          "name": "balance",
          "type": "uint256"
        },
        {
          "internalType": "address",
          "name": "userAddress",
          "type": "address"
        },
        {
          "internalType": "string",
          "name": "contractChosen",
          "type": "string"
        },
        {
          "internalType": "string",
          "name": "email",
          "type": "string"
        },
        {
          "internalType": "bool",
          "name": "isMarried",
          "type": "bool"
        }
      ],
      "stateMutability": "view",
      "type": "function"
    }
  ],
  "bytecode": "0x608060405234801561001057600080fd5b50610f35806100206000396000f3fe608060405234801561001057600080fd5b50600436106100b45760003560e01c8063a87430ba11610071578063a87430ba14610168578063ab7e7cf61461018f578063b08079a6146101d1578063b73fcda8146101e4578063e30443bc14610211578063f8b2cb4f1461023e57600080fd5b80630ad1c2fa146100b95780630ea5e419146100e2578063335062ae146100f75780636f77926b1461010a578063797728441461012a5780638da5cb5b1461013d575b600080fd5b6100cc6100c736600461096c565b610278565b6040516100d991906109d4565b60405180910390f35b6100f56100f0366004610a8a565b610327565b005b6100f5610105366004610ae8565b61038a565b61011d61011836600461096c565b61045b565b6040516100d99190610baf565b6100f5610138366004610c62565b6106d3565b600054610150906001600160a01b031681565b6040516001600160a01b0390911681526020016100d9565b61017b61017636600461096c565b610730565b6040516100d9989796959493929190610c95565b6101c161019d36600461096c565b6001600160a01b039081166000818152600160205260409020600401549091161490565b60405190151581526020016100d9565b6100f56101df366004610d0d565b610919565b6100f56101f2366004610d0d565b6001600160a01b03909116600090815260016020526040902060020155565b6100f561021f366004610d0d565b6001600160a01b03909116600090815260016020526040902060030155565b61026a61024c36600461096c565b6001600160a01b031660009081526001602052604090206003015490565b6040519081526020016100d9565b6001600160a01b03811660009081526001602052604090206005018054606091906102a290610d37565b80601f01602080910402602001604051908101604052809291908181526020018280546102ce90610d37565b801561031b5780601f106102f05761010080835404028352916020019161031b565b820191906000526020600020905b8154815290600101906020018083116102fe57829003601f168201915b50505050509050919050565b6001600160a01b03821660009081526001602052604090206006810161034d8382610dc2565b507f0556871f901790e1ea1d760c89698406d95c0085b6e0d7b89581ee078ccac5f08260405161037d91906109d4565b60405180910390a1505050565b6001600160a01b0384166000908152600160205260409020806103ad8a82610dc2565b506001810188905560028101879055600381018690556004810180546001600160a01b0319166001600160a01b038716179055600581016103ee8582610dc2565b50600681016103fd8482610dc2565b5060078101805460ff19168315151790556040517f4d1268ccdd2458c9d87362ff2b1b3f0461ddb5e3975db6f8333bc05f9cf7b9bb90610448908b908b908b908b908b908b90610e82565b60405180910390a1505050505050505050565b6104ae6040518061010001604052806060815260200160008152602001600081526020016000815260200160006001600160a01b0316815260200160608152602001606081526020016000151581525090565b6001600160a01b03821660009081526001602052604090819020815161010081019092528054829082906104e190610d37565b80601f016020809104026020016040519081016040528092919081815260200182805461050d90610d37565b801561055a5780601f1061052f5761010080835404028352916020019161055a565b820191906000526020600020905b81548152906001019060200180831161053d57829003601f168201915b505050918352505060018201546020820152600282015460408201526003820154606082015260048201546001600160a01b0316608082015260058201805460a0909201916105a890610d37565b80601f01602080910402602001604051908101604052809291908181526020018280546105d490610d37565b80156106215780601f106105f657610100808354040283529160200191610621565b820191906000526020600020905b81548152906001019060200180831161060457829003601f168201915b5050505050815260200160068201805461063a90610d37565b80601f016020809104026020016040519081016040528092919081815260200182805461066690610d37565b80156106b35780601f10610688576101008083540402835291602001916106b3565b820191906000526020600020905b81548152906001019060200180831161069657829003601f168201915b50505091835250506007919091015460ff16151560209091015292915050565b6001600160a01b03821660009081526001602090815260409182902060078101805460ff19168515159081179091559251928352917f20ca417e06eb226516edb55b5fccae084d00810f3720f5dd79969b3b61d2d3ba910161037d565b60016020526000908152604090208054819061074b90610d37565b80601f016020809104026020016040519081016040528092919081815260200182805461077790610d37565b80156107c45780601f10610799576101008083540402835291602001916107c4565b820191906000526020600020905b8154815290600101906020018083116107a757829003601f168201915b5050506001840154600285015460038601546004870154600588018054979894979396509194506001600160a01b031692916107ff90610d37565b80601f016020809104026020016040519081016040528092919081815260200182805461082b90610d37565b80156108785780601f1061084d57610100808354040283529160200191610878565b820191906000526020600020905b81548152906001019060200180831161085b57829003601f168201915b50505050509080600601805461088d90610d37565b80601f01602080910402602001604051908101604052809291908181526020018280546108b990610d37565b80156109065780601f106108db57610100808354040283529160200191610906565b820191906000526020600020905b8154815290600101906020018083116108e957829003601f168201915b5050506007909301549192505060ff1688565b6001600160a01b038216600090815260016020526040812060038101805491928492610946908490610ed8565b9091555050505050565b80356001600160a01b038116811461096757600080fd5b919050565b60006020828403121561097e57600080fd5b61098782610950565b9392505050565b6000815180845260005b818110156109b457602081850181015186830182015201610998565b506000602082860101526020601f19601f83011685010191505092915050565b602081526000610987602083018461098e565b634e487b7160e01b600052604160045260246000fd5b600082601f830112610a0e57600080fd5b813567ffffffffffffffff80821115610a2957610a296109e7565b604051601f8301601f19908116603f01168101908282118183101715610a5157610a516109e7565b81604052838152866020858801011115610a6a57600080fd5b836020870160208301376000602085830101528094505050505092915050565b60008060408385031215610a9d57600080fd5b610aa683610950565b9150602083013567ffffffffffffffff811115610ac257600080fd5b610ace858286016109fd565b9150509250929050565b8035801515811461096757600080fd5b600080600080600080600080610100898b031215610b0557600080fd5b883567ffffffffffffffff80821115610b1d57600080fd5b610b298c838d016109fd565b995060208b0135985060408b0135975060608b01359650610b4c60808c01610950565b955060a08b0135915080821115610b6257600080fd5b610b6e8c838d016109fd565b945060c08b0135915080821115610b8457600080fd5b50610b918b828c016109fd565b925050610ba060e08a01610ad8565b90509295985092959890939650565b6020815260008251610100806020850152610bce61012085018361098e565b91506020850151604085015260408501516060850152606085015160808501526080850151610c0860a08601826001600160a01b03169052565b5060a0850151601f19808685030160c0870152610c25848361098e565b935060c08701519150808685030160e087015250610c43838261098e565b92505060e0850151610c588286018215159052565b5090949350505050565b60008060408385031215610c7557600080fd5b610c7e83610950565b9150610c8c60208401610ad8565b90509250929050565b6000610100808352610ca98184018c61098e565b602084018b9052604084018a9052606084018990526001600160a01b038816608085015283810360a08501529050610ce1818761098e565b905082810360c0840152610cf5818661098e565b91505082151560e08301529998505050505050505050565b60008060408385031215610d2057600080fd5b610d2983610950565b946020939093013593505050565b600181811c90821680610d4b57607f821691505b602082108103610d6b57634e487b7160e01b600052602260045260246000fd5b50919050565b601f821115610dbd576000816000526020600020601f850160051c81016020861015610d9a5750805b601f850160051c820191505b81811015610db957828155600101610da6565b5050505b505050565b815167ffffffffffffffff811115610ddc57610ddc6109e7565b610df081610dea8454610d37565b84610d71565b602080601f831160018114610e255760008415610e0d5750858301515b600019600386901b1c1916600185901b178555610db9565b600085815260208120601f198616915b82811015610e5457888601518255948401946001909101908401610e35565b5085821015610e725787850151600019600388901b60f8161c191681555b5050505050600190811b01905550565b60c081526000610e9560c083018961098e565b6020830188905260408301879052606083018690526001600160a01b038516608084015282810360a0840152610ecb818561098e565b9998505050505050505050565b80820180821115610ef957634e487b7160e01b600052601160045260246000fd5b9291505056fea26469706673582212203d11795e44da6dbcb96a1e3e395f21f1b03cbfc32ecf088ce95956e84eedf69d64736f6c63430008170033",
  "linkReferences": {},
  "deployedLinkReferences": {}
}