{
  "_format": "hh-sol-artifact-1",
  "contractName": "User",
  "sourceName": "contracts/User.sol",
  "abi": [
    {
      "inputs": [
        {
          "internalType": "string",
          "name": "_name",
          "type": "string"
        },
        {
          "internalType": "uint256",
          "name": "_age",
          "type": "uint256"
        },
        {
          "internalType": "uint256",
          "name": "_numberOfChildren",
          "type": "uint256"
        },
        {
          "internalType": "uint256",
          "name": "_balance",
          "type": "uint256"
        },
        {
          "internalType": "address",
          "name": "_userAddress",
          "type": "address"
        },
        {
          "internalType": "string",
          "name": "_contractChosen",
          "type": "string"
        },
        {
          "internalType": "string",
          "name": "_email",
          "type": "string"
        },
        {
          "internalType": "bool",
          "name": "_isMarried",
          "type": "bool"
        }
      ],
      "stateMutability": "nonpayable",
      "type": "constructor"
    },
    {
      "anonymous": false,
      "inputs": [
        {
          "indexed": false,
          "internalType": "string",
          "name": "email",
          "type": "string"
        }
      ],
      "name": "EmailUpdated",
      "type": "event"
    },
    {
      "anonymous": false,
      "inputs": [
        {
          "indexed": false,
          "internalType": "bool",
          "name": "isMarried",
          "type": "bool"
        }
      ],
      "name": "MarriageStatusUpdated",
      "type": "event"
    },
    {
      "anonymous": false,
      "inputs": [
        {
          "indexed": false,
          "internalType": "string",
          "name": "name",
          "type": "string"
        },
        {
          "indexed": false,
          "internalType": "uint256",
          "name": "age",
          "type": "uint256"
        },
        {
          "indexed": false,
          "internalType": "uint256",
          "name": "numberOfChildren",
          "type": "uint256"
        },
        {
          "indexed": false,
          "internalType": "uint256",
          "name": "balance",
          "type": "uint256"
        },
        {
          "indexed": false,
          "internalType": "address",
          "name": "userAddress",
          "type": "address"
        },
        {
          "indexed": false,
          "internalType": "string",
          "name": "contractChosen",
          "type": "string"
        }
      ],
      "name": "UserInfoUpdated",
      "type": "event"
    },
    {
      "inputs": [],
      "name": "age",
      "outputs": [
        {
          "internalType": "uint256",
          "name": "",
          "type": "uint256"
        }
      ],
      "stateMutability": "view",
      "type": "function"
    },
    {
      "inputs": [],
      "name": "balance",
      "outputs": [
        {
          "internalType": "uint256",
          "name": "",
          "type": "uint256"
        }
      ],
      "stateMutability": "view",
      "type": "function"
    },
    {
      "inputs": [],
      "name": "contractChosen",
      "outputs": [
        {
          "internalType": "string",
          "name": "",
          "type": "string"
        }
      ],
      "stateMutability": "view",
      "type": "function"
    },
    {
      "inputs": [],
      "name": "email",
      "outputs": [
        {
          "internalType": "string",
          "name": "",
          "type": "string"
        }
      ],
      "stateMutability": "view",
      "type": "function"
    },
    {
      "inputs": [],
      "name": "getUserDetails",
      "outputs": [
        {
          "internalType": "string",
          "name": "",
          "type": "string"
        },
        {
          "internalType": "uint256",
          "name": "",
          "type": "uint256"
        },
        {
          "internalType": "uint256",
          "name": "",
          "type": "uint256"
        },
        {
          "internalType": "uint256",
          "name": "",
          "type": "uint256"
        },
        {
          "internalType": "address",
          "name": "",
          "type": "address"
        },
        {
          "internalType": "string",
          "name": "",
          "type": "string"
        },
        {
          "internalType": "string",
          "name": "",
          "type": "string"
        },
        {
          "internalType": "bool",
          "name": "",
          "type": "bool"
        }
      ],
      "stateMutability": "view",
      "type": "function"
    },
    {
      "inputs": [],
      "name": "isMarried",
      "outputs": [
        {
          "internalType": "bool",
          "name": "",
          "type": "bool"
        }
      ],
      "stateMutability": "view",
      "type": "function"
    },
    {
      "inputs": [],
      "name": "name",
      "outputs": [
        {
          "internalType": "string",
          "name": "",
          "type": "string"
        }
      ],
      "stateMutability": "view",
      "type": "function"
    },
    {
      "inputs": [],
      "name": "numberOfChildren",
      "outputs": [
        {
          "internalType": "uint256",
          "name": "",
          "type": "uint256"
        }
      ],
      "stateMutability": "view",
      "type": "function"
    },
    {
      "inputs": [
        {
          "internalType": "string",
          "name": "_email",
          "type": "string"
        }
      ],
      "name": "updateEmail",
      "outputs": [],
      "stateMutability": "nonpayable",
      "type": "function"
    },
    {
      "inputs": [
        {
          "internalType": "bool",
          "name": "_isMarried",
          "type": "bool"
        }
      ],
      "name": "updateMarriageStatus",
      "outputs": [],
      "stateMutability": "nonpayable",
      "type": "function"
    },
    {
      "inputs": [
        {
          "internalType": "string",
          "name": "_name",
          "type": "string"
        },
        {
          "internalType": "uint256",
          "name": "_age",
          "type": "uint256"
        },
        {
          "internalType": "uint256",
          "name": "_numberOfChildren",
          "type": "uint256"
        },
        {
          "internalType": "uint256",
          "name": "_balance",
          "type": "uint256"
        },
        {
          "internalType": "string",
          "name": "_contractChosen",
          "type": "string"
        }
      ],
      "name": "updateUserInfo",
      "outputs": [],
      "stateMutability": "nonpayable",
      "type": "function"
    },
    {
      "inputs": [],
      "name": "userAddress",
      "outputs": [
        {
          "internalType": "address",
          "name": "",
          "type": "address"
        }
      ],
      "stateMutability": "view",
      "type": "function"
    }
  ],
  "bytecode": "0x60806040523480156200001157600080fd5b5060405162000ec438038062000ec4833981016040819052620000349162000254565b6000620000428982620003b9565b50600187905560028690556003859055600480546001600160a01b0319166001600160a01b03861617905560056200007b8482620003b9565b5060066200008a8382620003b9565b506007805460ff19168215151790556040517f4d1268ccdd2458c9d87362ff2b1b3f0461ddb5e3975db6f8333bc05f9cf7b9bb90620000d5908a908a908a908a908a908a90620004b3565b60405180910390a17f0556871f901790e1ea1d760c89698406d95c0085b6e0d7b89581ee078ccac5f0826040516200010e91906200050d565b60405180910390a160405181151581527f20ca417e06eb226516edb55b5fccae084d00810f3720f5dd79969b3b61d2d3ba9060200160405180910390a1505050505050505062000529565b634e487b7160e01b600052604160045260246000fd5b60005b838110156200018c57818101518382015260200162000172565b50506000910152565b600082601f830112620001a757600080fd5b81516001600160401b0380821115620001c457620001c462000159565b604051601f8301601f19908116603f01168101908282118183101715620001ef57620001ef62000159565b816040528381528660208588010111156200020957600080fd5b6200021c8460208301602089016200016f565b9695505050505050565b80516001600160a01b03811681146200023e57600080fd5b919050565b805180151581146200023e57600080fd5b600080600080600080600080610100898b0312156200027257600080fd5b88516001600160401b03808211156200028a57600080fd5b620002988c838d0162000195565b995060208b0151985060408b0151975060608b01519650620002bd60808c0162000226565b955060a08b0151915080821115620002d457600080fd5b620002e28c838d0162000195565b945060c08b0151915080821115620002f957600080fd5b50620003088b828c0162000195565b9250506200031960e08a0162000243565b90509295985092959890939650565b600181811c908216806200033d57607f821691505b6020821081036200035e57634e487b7160e01b600052602260045260246000fd5b50919050565b601f821115620003b4576000816000526020600020601f850160051c810160208610156200038f5750805b601f850160051c820191505b81811015620003b0578281556001016200039b565b5050505b505050565b81516001600160401b03811115620003d557620003d562000159565b620003ed81620003e6845462000328565b8462000364565b602080601f8311600181146200042557600084156200040c5750858301515b600019600386901b1c1916600185901b178555620003b0565b600085815260208120601f198616915b82811015620004565788860151825594840194600190910190840162000435565b5085821015620004755787850151600019600388901b60f8161c191681555b5050505050600190811b01905550565b600081518084526200049f8160208601602086016200016f565b601f01601f19169290920160200192915050565b60c081526000620004c860c083018962000485565b6020830188905260408301879052606083018690526001600160a01b038516608084015282810360a084015262000500818562000485565b9998505050505050505050565b60208152600062000522602083018462000485565b9392505050565b61098b80620005396000396000f3fe608060405234801561001057600080fd5b50600436106100b45760003560e01c806383fa2f471161007157806383fa2f4714610127578063942886be1461012f578063a702314d1461014b578063b69ef8a814610168578063e4128fb314610171578063f06099af1461019c57600080fd5b806306fdde03146100b9578063262a9dff146100d75780633459e3b4146100ee578063534349f5146101035780637ed912d61461010c578063820e93f51461011f575b600080fd5b6100c16101af565b6040516100ce919061059f565b60405180910390f35b6100e060015481565b6040519081526020016100ce565b6101016100fc3660046105b9565b61023d565b005b6100e060025481565b61010161011a36600461067e565b610285565b6100c1610304565b6100c1610311565b61013761031e565b6040516100ce9897969594939291906106ff565b6007546101589060ff1681565b60405190151581526020016100ce565b6100e060035481565b600454610184906001600160a01b031681565b6040516001600160a01b0390911681526020016100ce565b6101016101aa366004610777565b61051d565b600080546101bc906107b4565b80601f01602080910402602001604051908101604052809291908181526020018280546101e8906107b4565b80156102355780601f1061020a57610100808354040283529160200191610235565b820191906000526020600020905b81548152906001019060200180831161021857829003601f168201915b505050505081565b6007805460ff19168215159081179091556040519081527f20ca417e06eb226516edb55b5fccae084d00810f3720f5dd79969b3b61d2d3ba906020015b60405180910390a150565b6000610291868261083f565b5060018490556002839055600382905560056102ad828261083f565b506004546040517f4d1268ccdd2458c9d87362ff2b1b3f0461ddb5e3975db6f8333bc05f9cf7b9bb916102f59188918891889188916001600160a01b039091169088906108ff565b60405180910390a15050505050565b600680546101bc906107b4565b600580546101bc906107b4565b6060600080600080606080600080600154600254600354600460009054906101000a90046001600160a01b031660056006600760009054906101000a900460ff1687805461036b906107b4565b80601f0160208091040260200160405190810160405280929190818152602001828054610397906107b4565b80156103e45780601f106103b9576101008083540402835291602001916103e4565b820191906000526020600020905b8154815290600101906020018083116103c757829003601f168201915b505050505097508280546103f7906107b4565b80601f0160208091040260200160405190810160405280929190818152602001828054610423906107b4565b80156104705780601f1061044557610100808354040283529160200191610470565b820191906000526020600020905b81548152906001019060200180831161045357829003601f168201915b50505050509250818054610483906107b4565b80601f01602080910402602001604051908101604052809291908181526020018280546104af906107b4565b80156104fc5780601f106104d1576101008083540402835291602001916104fc565b820191906000526020600020905b8154815290600101906020018083116104df57829003601f168201915b50505050509150975097509750975097509750975097509091929394959697565b6006610529828261083f565b507f0556871f901790e1ea1d760c89698406d95c0085b6e0d7b89581ee078ccac5f08160405161027a919061059f565b6000815180845260005b8181101561057f57602081850181015186830182015201610563565b506000602082860101526020601f19601f83011685010191505092915050565b6020815260006105b26020830184610559565b9392505050565b6000602082840312156105cb57600080fd5b813580151581146105b257600080fd5b634e487b7160e01b600052604160045260246000fd5b600082601f83011261060257600080fd5b813567ffffffffffffffff8082111561061d5761061d6105db565b604051601f8301601f19908116603f01168101908282118183101715610645576106456105db565b8160405283815286602085880101111561065e57600080fd5b836020870160208301376000602085830101528094505050505092915050565b600080600080600060a0868803121561069657600080fd5b853567ffffffffffffffff808211156106ae57600080fd5b6106ba89838a016105f1565b965060208801359550604088013594506060880135935060808801359150808211156106e557600080fd5b506106f2888289016105f1565b9150509295509295909350565b60006101008083526107138184018c610559565b602084018b9052604084018a9052606084018990526001600160a01b038816608085015283810360a0850152905061074b8187610559565b905082810360c084015261075f8186610559565b91505082151560e08301529998505050505050505050565b60006020828403121561078957600080fd5b813567ffffffffffffffff8111156107a057600080fd5b6107ac848285016105f1565b949350505050565b600181811c908216806107c857607f821691505b6020821081036107e857634e487b7160e01b600052602260045260246000fd5b50919050565b601f82111561083a576000816000526020600020601f850160051c810160208610156108175750805b601f850160051c820191505b8181101561083657828155600101610823565b5050505b505050565b815167ffffffffffffffff811115610859576108596105db565b61086d8161086784546107b4565b846107ee565b602080601f8311600181146108a2576000841561088a5750858301515b600019600386901b1c1916600185901b178555610836565b600085815260208120601f198616915b828110156108d1578886015182559484019460019091019084016108b2565b50858210156108ef5787850151600019600388901b60f8161c191681555b5050505050600190811b01905550565b60c08152600061091260c0830189610559565b6020830188905260408301879052606083018690526001600160a01b038516608084015282810360a08401526109488185610559565b999850505050505050505056fea264697066735822122000b4149e59933914e6fdbe02afa2d835cf04ed6ab383b3202d7dd08b94421f2164736f6c63430008170033",
  "linkReferences": {},
  "deployedLinkReferences": {}
}