{
  "_format": "hh-sol-artifact-1",
  "contractName": "maRetraite",
  "sourceName": "contracts/contratPersonaliser/MaRetraite.sol",
  "abi": [
    {
      "inputs": [],
      "stateMutability": "nonpayable",
      "type": "constructor"
    },
    {
      "inputs": [
        {
          "internalType": "address",
          "name": "owner",
          "type": "address"
        }
      ],
      "name": "OwnableInvalidOwner",
      "type": "error"
    },
    {
      "inputs": [
        {
          "internalType": "address",
          "name": "account",
          "type": "address"
        }
      ],
      "name": "OwnableUnauthorizedAccount",
      "type": "error"
    },
    {
      "anonymous": false,
      "inputs": [
        {
          "indexed": true,
          "internalType": "address",
          "name": "policyHolder",
          "type": "address"
        },
        {
          "indexed": false,
          "internalType": "uint256",
          "name": "addedAmount",
          "type": "uint256"
        }
      ],
      "name": "ContractAdded",
      "type": "event"
    },
    {
      "anonymous": false,
      "inputs": [
        {
          "indexed": true,
          "internalType": "address",
          "name": "contributor",
          "type": "address"
        },
        {
          "indexed": false,
          "internalType": "uint256",
          "name": "amount",
          "type": "uint256"
        }
      ],
      "name": "ContributionMade",
      "type": "event"
    },
    {
      "anonymous": false,
      "inputs": [
        {
          "indexed": true,
          "internalType": "address",
          "name": "previousOwner",
          "type": "address"
        },
        {
          "indexed": true,
          "internalType": "address",
          "name": "newOwner",
          "type": "address"
        }
      ],
      "name": "OwnershipTransferred",
      "type": "event"
    },
    {
      "anonymous": false,
      "inputs": [
        {
          "indexed": true,
          "internalType": "address",
          "name": "policyHolder",
          "type": "address"
        },
        {
          "indexed": false,
          "internalType": "uint256",
          "name": "redeemedAmount",
          "type": "uint256"
        }
      ],
      "name": "PolicyRedeemed",
      "type": "event"
    },
    {
      "inputs": [
        {
          "internalType": "uint256",
          "name": "_amount",
          "type": "uint256"
        },
        {
          "internalType": "address",
          "name": "gateway",
          "type": "address"
        }
      ],
      "name": "addContract",
      "outputs": [],
      "stateMutability": "payable",
      "type": "function"
    },
    {
      "inputs": [
        {
          "internalType": "uint256",
          "name": "",
          "type": "uint256"
        }
      ],
      "name": "allAddresses",
      "outputs": [
        {
          "internalType": "address",
          "name": "",
          "type": "address"
        }
      ],
      "stateMutability": "view",
      "type": "function"
    },
    {
      "inputs": [],
      "name": "assuranceWallet",
      "outputs": [
        {
          "internalType": "contract IAssuranceWallet",
          "name": "",
          "type": "address"
        }
      ],
      "stateMutability": "view",
      "type": "function"
    },
    {
      "inputs": [
        {
          "internalType": "address",
          "name": "_newOwner",
          "type": "address"
        }
      ],
      "name": "changeOwner",
      "outputs": [],
      "stateMutability": "nonpayable",
      "type": "function"
    },
    {
      "inputs": [
        {
          "internalType": "address",
          "name": "",
          "type": "address"
        }
      ],
      "name": "contractDetailsOf",
      "outputs": [
        {
          "internalType": "address",
          "name": "policyHolder",
          "type": "address"
        },
        {
          "internalType": "address",
          "name": "addressGateway",
          "type": "address"
        },
        {
          "internalType": "uint256",
          "name": "capitalTotal",
          "type": "uint256"
        },
        {
          "internalType": "uint256",
          "name": "yearsSinceStart",
          "type": "uint256"
        },
        {
          "internalType": "uint256",
          "name": "monthsSinceStart",
          "type": "uint256"
        }
      ],
      "stateMutability": "view",
      "type": "function"
    },
    {
      "inputs": [
        {
          "internalType": "uint256",
          "name": "_amount",
          "type": "uint256"
        }
      ],
      "name": "contributeToSavings",
      "outputs": [],
      "stateMutability": "payable",
      "type": "function"
    },
    {
      "inputs": [],
      "name": "getAllContract",
      "outputs": [
        {
          "internalType": "uint256",
          "name": "",
          "type": "uint256"
        }
      ],
      "stateMutability": "view",
      "type": "function"
    },
    {
      "inputs": [],
      "name": "getContributions",
      "outputs": [
        {
          "internalType": "uint256",
          "name": "",
          "type": "uint256"
        }
      ],
      "stateMutability": "view",
      "type": "function"
    },
    {
      "inputs": [
        {
          "internalType": "uint256",
          "name": "moneyInNeed",
          "type": "uint256"
        }
      ],
      "name": "getCoverageIncapability",
      "outputs": [
        {
          "internalType": "uint256",
          "name": "",
          "type": "uint256"
        }
      ],
      "stateMutability": "nonpayable",
      "type": "function"
    },
    {
      "inputs": [
        {
          "internalType": "address",
          "name": "user",
          "type": "address"
        }
      ],
      "name": "getDeathAmount",
      "outputs": [
        {
          "internalType": "uint256",
          "name": "",
          "type": "uint256"
        }
      ],
      "stateMutability": "nonpayable",
      "type": "function"
    },
    {
      "inputs": [],
      "name": "getPolicyValue",
      "outputs": [
        {
          "internalType": "uint256",
          "name": "",
          "type": "uint256"
        }
      ],
      "stateMutability": "view",
      "type": "function"
    },
    {
      "inputs": [],
      "name": "owner",
      "outputs": [
        {
          "internalType": "address",
          "name": "",
          "type": "address"
        }
      ],
      "stateMutability": "view",
      "type": "function"
    },
    {
      "inputs": [
        {
          "internalType": "bytes32",
          "name": "hash",
          "type": "bytes32"
        },
        {
          "internalType": "bytes",
          "name": "signature",
          "type": "bytes"
        }
      ],
      "name": "recover",
      "outputs": [
        {
          "internalType": "address",
          "name": "",
          "type": "address"
        }
      ],
      "stateMutability": "pure",
      "type": "function"
    },
    {
      "inputs": [
        {
          "internalType": "uint256",
          "name": "_amount",
          "type": "uint256"
        }
      ],
      "name": "redeemPolicy",
      "outputs": [],
      "stateMutability": "nonpayable",
      "type": "function"
    },
    {
      "inputs": [],
      "name": "renounceOwnership",
      "outputs": [],
      "stateMutability": "nonpayable",
      "type": "function"
    },
    {
      "inputs": [
        {
          "internalType": "address",
          "name": "newOwner",
          "type": "address"
        }
      ],
      "name": "transferOwnership",
      "outputs": [],
      "stateMutability": "nonpayable",
      "type": "function"
    },
    {
      "inputs": [],
      "name": "users",
      "outputs": [
        {
          "internalType": "contract IUsers",
          "name": "",
          "type": "address"
        }
      ],
      "stateMutability": "view",
      "type": "function"
    }
  ],
  "bytecode": "0x608060405234801561001057600080fd5b50338061003757604051631e4fbdf760e01b81526000600482015260240160405180910390fd5b6100408161004f565b5061004a3361004f565b61009f565b600080546001600160a01b038381166001600160a01b0319831681178455604051919092169283917f8be0079c531659141344cd1fd0a4f28419497f9722a3daafe3b4186f6b6457e09190a35050565b610f21806100ae6000396000f3fe6080604052600436106100fe5760003560e01c8063a6f9dae111610095578063c808493e11610064578063c808493e146102dd578063dacc5370146102fd578063dda0a81a1461031d578063f202027514610342578063f2fde38b1461036257600080fd5b8063a6f9dae11461026a578063a97a906a1461028a578063b1352a0a146102aa578063c3ff8126146102ca57600080fd5b8063715018a6116100d1578063715018a614610198578063811fd2cb146101ad5780638da5cb5b146101c25780639ba0d5d7146101e057600080fd5b80630cd922ce1461010357806319045a25146101255780635b702e48146101625780635d4514da14610185575b600080fd5b34801561010f57600080fd5b5061012361011e366004610d15565b610382565b005b34801561013157600080fd5b50610145610140366004610d44565b61065b565b6040516001600160a01b0390911681526020015b60405180910390f35b34801561016e57600080fd5b50610177610734565b604051908152602001610159565b610123610193366004610e16565b610786565b3480156101a457600080fd5b50610123610898565b3480156101b957600080fd5b50600454610177565b3480156101ce57600080fd5b506000546001600160a01b0316610145565b3480156101ec57600080fd5b506102376101fb366004610e42565b6003602081905260009182526040909120805460018201546002830154938301546004909301546001600160a01b039283169492909116929085565b604080516001600160a01b039687168152959094166020860152928401919091526060830152608082015260a001610159565b34801561027657600080fd5b50610123610285366004610e42565b6108ac565b34801561029657600080fd5b506101776102a5366004610d15565b6108c0565b3480156102b657600080fd5b506101776102c5366004610e42565b610951565b6101236102d8366004610d15565b610a84565b3480156102e957600080fd5b50600254610145906001600160a01b031681565b34801561030957600080fd5b50610145610318366004610d15565b610c3c565b34801561032957600080fd5b5033600090815260036020526040902060020154610177565b34801561034e57600080fd5b50600154610145906001600160a01b031681565b34801561036e57600080fd5b5061012361037d366004610e42565b610c66565b336000908152600360205260408120600201548211156103e95760405162461bcd60e51b815260206004820152601b60248201527f596f7520646f6e2774206861766520656e6f756768206d6f6e6579000000000060448201526064015b60405180910390fd5b33600090815260036020819052604090912001546005111561049c57600a610412836009610e73565b61041c9190610e8a565b6002549091506001600160a01b03166312fa680e600a61043d856001610e73565b6104479190610e8a565b6040518263ffffffff1660e01b815260040161046591815260200190565b600060405180830381600087803b15801561047f57600080fd5b505af1158015610493573d6000803e3d6000fd5b5050505061052f565b60146104a9836013610e73565b6104b39190610e8a565b6002549091506001600160a01b03166312fa680e60146104d4856001610e73565b6104de9190610e8a565b6040518263ffffffff1660e01b81526004016104fc91815260200190565b600060405180830381600087803b15801561051657600080fd5b505af115801561052a573d6000803e3d6000fd5b505050505b3360009081526003602052604090206002015461054d908390610eac565b3360009081526003602052604090819020600290810192909255905490516334d9658f60e01b8152600481018390526001600160a01b03909116906334d9658f90602401600060405180830381600087803b1580156105ab57600080fd5b505af11580156105bf573d6000803e3d6000fd5b505060025460405163c218a1ef60e01b8152600481018590526001600160a01b03909116925063c218a1ef9150602401600060405180830381600087803b15801561060957600080fd5b505af115801561061d573d6000803e3d6000fd5b50506040518381523392507f709eb6ae125eb7008096583e1764843b1a078314a9e128a48a3a20e5720d914591506020015b60405180910390a25050565b6000806000808451604114610676576000935050505061072e565b50505060208201516040830151606084015160001a601b8110156106a25761069f601b82610ebf565b90505b8060ff16601b141580156106ba57508060ff16601c14155b156106cb576000935050505061072e565b60408051600081526020810180835288905260ff831691810191909152606081018490526080810183905260019060a0016020604051602081039080840390855afa15801561071e573d6000803e3d6000fd5b5050506020604051035193505050505b92915050565b336000908152600360208190526040822001548190600511156107595750600a919050565b33600090815260036020819052604090912001546008111561077d57506005919050565b5060035b919050565b33600090815260036020526040902060020154156107e65760405162461bcd60e51b815260206004820152601b60248201527f596f7520616c72656164792068617665206120636f6e7472616374000000000060448201526064016103e0565b3360008181526003602081815260408084206002810188905580546001600160a01b0319908116871782556001808301805483166001600160a01b038b1617905594820186905560049182018690558154948501825594527f8a35acfbc15ff81a39ae7d344fd709f28e8600b4aa8c65c6b64bfe7fe36bd19b90920180549093168417909255518481527ff5258aee5f005d2bd983df8c969cd8db92fce883ceeab8c8a3f1e2f71aecb7ac910161064f565b6108a0610c98565b6108aa6000610cc5565b565b6108b4610c98565b6108bd81610cc5565b50565b336000908152600360205260408082206002908101549054915163c218a1ef60e01b81526028600482015290916001600160a01b03169063c218a1ef90602401600060405180830381600087803b15801561091a57600080fd5b505af115801561092e573d6000803e3d6000fd5b50505050828160026109409190610e73565b61094a9190610ed8565b9392505050565b6001600160a01b038116600090815260036020526040808220602860029182015533835290822001805490826109878380610ed8565b90915550506001805433600090815260036020526040908190209283015460029093015490516338c110ef60e21b81526001600160a01b039384166004820152602481019190915291169063e30443bc90604401600060405180830381600087803b1580156109f557600080fd5b505af1158015610a09573d6000803e3d6000fd5b505060025460405163c218a1ef60e01b8152602860048201526001600160a01b03909116925063c218a1ef9150602401600060405180830381600087803b158015610a5357600080fd5b505af1158015610a67573d6000803e3d6000fd5b505033600090815260036020526040902060020154949350505050565b3360009081526003602081905260408220015460051115610aa75750600a610acf565b336000908152600360208190526040909120015460081115610acb57506005610acf565b5060035b60006064610add8385610e73565b610ae79190610e8a565b336000908152600360205260409020600201549091508190610b0a908590610ed8565b610b149190610ed8565b33600090815260036020526040812060028101929092556004909101805460019290610b41908490610ed8565b909155505060025460405163097d340760e11b8152600481018390526001600160a01b03909116906312fa680e90602401600060405180830381600087803b158015610b8c57600080fd5b505af1158015610ba0573d6000803e3d6000fd5b50506002546040516308c4868360e01b8152600481018790526001600160a01b0390911692506308c486839150602401600060405180830381600087803b158015610bea57600080fd5b505af1158015610bfe573d6000803e3d6000fd5b50506040518581523392507f6770260ea820d2f539364e7617e021543aaf6d192f2fd2a47c20db6bd99a4eb9915060200160405180910390a2505050565b60048181548110610c4c57600080fd5b6000918252602090912001546001600160a01b0316905081565b610c6e610c98565b6001600160a01b0381166108b457604051631e4fbdf760e01b8152600060048201526024016103e0565b6000546001600160a01b031633146108aa5760405163118cdaa760e01b81523360048201526024016103e0565b600080546001600160a01b038381166001600160a01b0319831681178455604051919092169283917f8be0079c531659141344cd1fd0a4f28419497f9722a3daafe3b4186f6b6457e09190a35050565b600060208284031215610d2757600080fd5b5035919050565b634e487b7160e01b600052604160045260246000fd5b60008060408385031215610d5757600080fd5b82359150602083013567ffffffffffffffff80821115610d7657600080fd5b818501915085601f830112610d8a57600080fd5b813581811115610d9c57610d9c610d2e565b604051601f8201601f19908116603f01168101908382118183101715610dc457610dc4610d2e565b81604052828152886020848701011115610ddd57600080fd5b8260208601602083013760006020848301015280955050505050509250929050565b80356001600160a01b038116811461078157600080fd5b60008060408385031215610e2957600080fd5b82359150610e3960208401610dff565b90509250929050565b600060208284031215610e5457600080fd5b61094a82610dff565b634e487b7160e01b600052601160045260246000fd5b808202811582820484141761072e5761072e610e5d565b600082610ea757634e487b7160e01b600052601260045260246000fd5b500490565b8181038181111561072e5761072e610e5d565b60ff818116838216019081111561072e5761072e610e5d565b8082018082111561072e5761072e610e5d56fea2646970667358221220c5d7eb98a9b5769470a66bb85dbcc900770b2f5d9ea71b2a2bbbec2435172fab64736f6c63430008170033",
  "linkReferences": {},
  "deployedLinkReferences": {}
}