{
  "_format": "hh-sol-artifact-1",
  "contractName": "AMEnfants",
  "sourceName": "contracts/contratPersonaliser/AMEnfants.sol",
  "abi": [
    {
      "anonymous": false,
      "inputs": [
        {
          "indexed": false,
          "internalType": "uint256",
          "name": "numberOfAdults",
          "type": "uint256"
        }
      ],
      "name": "NumberOfAdultsUpdated",
      "type": "event"
    },
    {
      "anonymous": false,
      "inputs": [
        {
          "indexed": false,
          "internalType": "uint256",
          "name": "numberOfChildren",
          "type": "uint256"
        }
      ],
      "name": "NumberOfChildrenUpdated",
      "type": "event"
    },
    {
      "inputs": [],
      "name": "numberOfAdults",
      "outputs": [
        {
          "internalType": "uint256",
          "name": "",
          "type": "uint256"
        }
      ],
      "stateMutability": "view",
      "type": "function"
    },
    {
      "inputs": [],
      "name": "numberOfChildren",
      "outputs": [
        {
          "internalType": "uint256",
          "name": "",
          "type": "uint256"
        }
      ],
      "stateMutability": "view",
      "type": "function"
    }
  ],
  "bytecode": "0x6080604052348015600f57600080fd5b50608f8061001e6000396000f3fe6080604052348015600f57600080fd5b506004361060325760003560e01c8063025ccef8146037578063534349f5146051575b600080fd5b603f60015481565b60405190815260200160405180910390f35b603f6000548156fea2646970667358221220a0e1effc3966438cc880a3acf11cd9baf3d4485afcdad5102db30bcd3ab8e06064736f6c63430008170033",
  "linkReferences": {},
  "deployedLinkReferences": {}
}