{
  "_format": "hh-sol-artifact-1",
  "contractName": "Migrations",
  "sourceName": "contracts/Migration.sol",
  "abi": [
    {
      "inputs": [],
      "stateMutability": "nonpayable",
      "type": "constructor"
    },
    {
      "inputs": [
        {
          "internalType": "uint256",
          "name": "completed",
          "type": "uint256"
        }
      ],
      "name": "setCompleted",
      "outputs": [],
      "stateMutability": "nonpayable",
      "type": "function"
    },
    {
      "inputs": [
        {
          "internalType": "address",
          "name": "new_address",
          "type": "address"
        }
      ],
      "name": "upgrade",
      "outputs": [],
      "stateMutability": "nonpayable",
      "type": "function"
    }
  ],
  "bytecode": "0x608060405234801561001057600080fd5b50600080546001600160a01b03191633179055610175806100326000396000f3fe608060405234801561001057600080fd5b50600436106100365760003560e01c80630900f0101461003b578063fdacd57614610050575b600080fd5b61004e6100493660046100f6565b610063565b005b61004e61005e366004610126565b6100df565b6000546001600160a01b031633036100dc57600154604051637ed66abb60e11b815282916001600160a01b0383169163fdacd576916100a89160040190815260200190565b600060405180830381600087803b1580156100c257600080fd5b505af11580156100d6573d6000803e3d6000fd5b50505050505b50565b6000546001600160a01b031633036100dc57600155565b60006020828403121561010857600080fd5b81356001600160a01b038116811461011f57600080fd5b9392505050565b60006020828403121561013857600080fd5b503591905056fea264697066735822122069113beaa10c3d4c963b7acb923138460a52f64c9bfbaba372f62a92031261ab64736f6c63430008170033",
  "linkReferences": {},
  "deployedLinkReferences": {}
}